:1000000097EF04F00000000000EF00F00000000097
:0A0010000000000000000000F3D71C
:0E001C00ACB202D00000FCD7E5C0ADFF120070
:0C002A0072B201D0FDD7E5C073FF1200D8
:0A003600210E0D6E0D2EFED71200F4
:06004000000000001200A8
:100046000F0E0C6E470E0D6E0D2EFED70C2EFCD726
:0600560000000000120092
:10005C00C7B409D01F0EC514016E0150000A03E18C
:0A006C00010E006E01D0006A1200C0
:100076000001E4BF02D0819601D08186E4BD02D0A2
:10008600819401D08184E4BB02D0819201D0818227
:10009600E4B902D0819001D08180A9B102D08188D3
:1000A60001D08198818AC9DF819AE4B702D081960E
:1000B60001D08186E4B502D0819401D08184E4B375
:1000C60002D0819201D08182E4B102D0819001D028
:1000D6008180A9B102D0818801D08198818AADDF63
:0E00E600819AA9A102D0ACDF01D0A2DF1200E6
:1000F400F250026EF29E0500FF6A0150FE6E00503F
:08010400FD6E02BEF28E120036
:10010C0088C0DEF089C0DFF08AC0E0F08BC0E1F07F
:10011C00C582C5A21FD00001885189118A118B118B
:10012C0018E0DE51DF11E011E1110CE1CEC0E1FF6E
:10013C00CFC0E2FF060EE66ECCC000F0CDC001F0E1
:10014C00D3DF08D0010E0001DE5F000EDF5BE05B49
:06015C00E15BDFD7120099
:1001620088C0E0F089C0E1F08AC0E2F08BC0E3F021
:100172009E96C5869EB61FD00001885189118A11AC
:100182008B1118E0E051E111E211E3110CE1CEC054
:10019200E1FFCFC0E2FF030EE66ECCC000F0CDC09F
:1001A20001F0A7DF08D0010E0001E05F000EE15B65
:1001B200E25BE35BDFD70001C9CFDFF0DE51000A6B
:1001C20002E1C58A01D0C59A9E96C58888C0E0F032
:1001D20089C0E1F08AC0E2F08BC0E3F09EB61ED087
:1001E200885189118A118B1118E0E051E111E21155
:1001F200E3110CE1CEC0E1FFCFC0E2FF030EE66ED9
:10020200CCC000F0CDC001F074DF08D0010E0001B7
:10021200E05F000EE15BE25BE35BE0D7DFC000F092
:020222001200C8
:0E0224000001A991DEC0E4F024DFA9811200E0
:100232005C0E0001C46F000EC56F000EC66F000E8B
:10024200C76FAA0EC86F020EC96F000ECA6F000EEA
:10025200CB6F0C0EA16F010EA26F000EA36F000EEA
:10026200A46F620EA56F010EA66FDE0EA76F000EC1
:10027200A86F3E0E996F030E9A6FDE0E9B6F000EF3
:100282009C6F3A0E9D6F030E9E6F000E9F6F000EC5
:10029200A06F949894968B988B9694889486C79E18
:0802A200C79C380EC66E120065
:1002AA0088C0E0F089C0E1F08AC0E2F08BC0E3F0D8
:1002BA000001DE6BDF6BDF51120802E1DE518E08AE
:1002CA0008E3C7DE005201E004D00001DE4BDF2B59
:1002DA00F2D70001120EDF5D02E18F0EDE5D03E34D
:1002EA007B0E006E24D0C580C5A020D0885189110C
:1002FA008A118B111AE0E051E111E211E3110EE1CA
:10030A00CEC0E1FFCFC0E2FF050EE66ECCC000F022
:10031A00CDC001F0EADE010E006E09D0010E000127
:10032A00E05F000EE15BE25BE35BDED7006A12008E
:04033A00C584120064
:10033E009E96DEC0C9FF88C0DFF089C0E0F08AC09B
:10034E00E1F08BC0E2F0C7A421D0000188518911E1
:10035E008A118B111AE0DF51E011E111E2110EE169
:10036E00CEC0E1FFCFC0E2FF040EE66ECCC000F0BF
:10037E00CDC001F0B8DE010E006E3AD0010E0001C4
:10038E00DF5F000EE05BE15BE25BDDD788C0DFF094
:10039E0089C0E0F08AC0E1F08BC0E2F09EB621D0B9
:1003AE000001885189118A118B111AE0DF51E01179
:1003BE00E111E2110EE1CEC0E1FFCFC0E2FF040E6B
:1003CE00E66ECCC000F0CDC001F08DDE010E006EE9
:1003DE000FD0010E0001DF5F000EE05BE15BE25B20
:1003EE00DDD7C5BC02D0006A03D0C584020E006EF4
:0203FE001200EB
:10040000086A080E0C6E003408360450085ED8B036
:0E04100002D00826D89000360C2EF5D7120028
:10041E000001DC6BD9C0E9FFDAC0EAFFEECFDBF0FA
:10042E00DB51000A0EE0DBC0E5F0F1DD0001DC2B54
:10043E00DC51D925E96E000EDA21EA6EEECFDBF043
:04044E00EFD71200D2
:0E0452000F0E0001D915006E300E00261200AC
:10046000939A93989390939293949396819A819868
:100470008196819481928190E6DDE5DDE4DD8182E3
:100480008180818ADDDD819ADEDD818AD9DD819AF4
:10049000DADD818AD5DD819AD6DD8190818AD0DD51
:1004A000819AD1DD818ACCDD819A81928186818A8F
:1004B000C7DD819AC8DD81968180818AC1DD819AFC
:1004C0008190818ABDDD819ABEDD818AB9DD819A04
:1004D0008180818AB5DD819AB6DD8190818AB0DD27
:1004E000819A8186818481828180818AA9DD819A35
:0804F000AADD0001A981120040
:1004F80010D0800E0001D96F1AD0C00ED96F17D056
:10050800940ED96F14D0D40ED96F11D0800ED96F34
:100518000ED00001D951010AECE0D951020AEDE0F0
:10052800D951030AEDE0D951040AEDE0EFD7DA0515
:10053800006ED951002600C0D9F000C0E4F097DD64
:10054800A991DD6BDD51DB25E96E000EDC21EA6E39
:10055800EE520BE0DD51DB25E96E000EDC21EA6E80
:0E056800EECFDEF05BDEDD2BEDD7A9811200B9
:10057600140EC86E5BDE96DED00E0001DE6FDCDE8A
:08058600D9DE010E006E120027
:10058E00D9C000F00032009E0032009E0032009E64
:0A059E000032009E300E002612000D
:1005A80080DED00E0001DE6FC6DED9C0DEF0C3DE0D
:1005B800A9DDD10E0001DE6FBEDE0001DE6BCDDDF0
:0C05C80000C0DAF0B6DEDAC000F012006D
:1005D4001C0E0001B26F000EB36FE50EB46F000E77
:1005E400B56FFF0EB66FFF0EB76F000EB86F000E3B
:1005F400B96FFF0EAA6FFF0EAB6F000EAC6F000E4B
:10060400AD6FFF0EAE6FFF0EAF6F000EB06F000E3A
:10061400B16FAC8A900EAB6E948E949C9EAA03D05C
:08062400AECF00F0FBD712007D
:10062C000900F5CFE6FF0006FBE10106F9E1120037
:10063C00660ED36E0F013B6B010E956E3A6BB8864E
:10064C00B06ACF0EAF6EAC84BFDF030E0B6E080E1C
:10065C000C6E770E0D6E0D2EFED70C2EFCD70B2EBE
:10066C00FAD73B0ED96F000EDA6FD3DE030E0B6E8A
:10067C00080E0C6E770E0D6E0D2EFED70C2EFCD7C1
:10068C000B2EFAD70F01396BE5DE010EE46FEDDCB2
:10069C000C0EE46FEADC470ED96F000EDA6FB9DE90
:1006AC00010ED96F010EDA6F260EDB6F000EDC6FB8
:1006BC001DDF030E0B6E080E0C6E770E0D6E0D2EDD
:1006CC00FED70C2EFCD70B2EFAD7010EE46FCDDC27
:1006DC00010ED96F010EDA6F340EDB6F000EDC6F7A
:1006EC0005DF020ED96F010EDA6F530EDB6F000EB1
:1006FC00DC6FFCDE3ADF0050010A07E1640E0001FA
:10070C00D96F000EDA6F85DE06D00001730ED96F3B
:10071C00000EDA6F7EDE030E0B6E080E0C6E770E7B
:10072C000D6E0D2EFED70C2EFCD70B2EFAD70F010B
:10073C00386B070E956E806A5A0E0001D96F000E49
:06074C00DA6F67DE120007
:100752000A0E046ED0C000F052DE08C000F00F0E88
:1007620000140001D16FD151D05D006E0A0E046EEB
:1007720046DE00C001F001360190013601900136DB
:10078200019001360190F00E0114006ED151001259
:02079200120053
:100794000F0E0001D015036EF00ED015026E02C0CC
:1007A40000F00032009E0032009E0032009E0032B3
:1007B400009E0A0E0002F3CF00F003500026120040
:1007C40072DDD00E0001DE6FB8DDD0C0DEF0B5DD25
:0A07D400D1C0DEF0B2DDAFDD12008F
:1007DE00300E0001D06F300ED16F3A0ED26F300E48
:1007EE00D36F300ED46F3A0ED56F300ED66F300EEB
:1007FE00D76FD86BD96BD1DE00C0C0F0000E0001F0
:10080E00C16F010ED96FC9DE00C0BAF0000E000133
:10081E00BB6F020ED96FC1DE00C0BCF0000E00012E
:10082E00BD6F1F0EBC15006EBDC001F0000E01168F
:10083E0000C0C2F001C0C3F000C0D9F0A1DE00C0FC
:10084E00D0F0C2C0D9F0FEDD00C0D1F0BAC0D9F0F0
:10085E0097DE00C0D3F0BAC0D9F0F4DD00C0D4F0FA
:10086E00C0C0D9F08DDE00C0D6F0C0C0D9F0EADD30
:0A087E0000C0D7F0D00E006E12008B
:10088800300E0001D06F300ED16F2F0ED26F300EA8
:10089800D36F300ED46F2F0ED56F300ED66F300E4B
:1008A800D76FD86B030ED96F7BDE00C090F0000EB7
:1008B8000001916F040ED96F73DE00C092F0000E34
:1008C8000001936F050ED96F6BDE00C097F0000E24
:1008D8000001986F060ED96F63DE00C0BEF0000EEF
:1008E8000001BF6F90C0D9F04EDE00C0D0F090C0BC
:1008F800D9F0ABDD00C0D1F097C0D9F044DE00C01C
:10090800D3F097C0D9F0A1DD00C0D4F0BEC0D9F0B3
:100918003ADE00C0D6F0BEC0D9F097DD00C0D7F0EF
:06092800D00E006E12006B
:10092E0017EC06F084DE966B80B015D01A0E0C6EA6
:10093E00F80E0D6E0D2EFED70C2EFCD7000080B0DB
:10094E000AD08E2B150ED96F000EDA6F61DD070EF1
:10095E008E5DD8B08E6B8E531EE080B20DD01A0E07
:10096E000C6EF80E0D6E0D2EFED70C2EFCD7000061
:10097E0080B202D0010E966F80B40DD01A0E0C6E9E
:10098E00F80E0D6E0D2EFED70C2EFCD7000080B487
:10099E0002D0FF0E966F8E53D8B4E3D09653D8B4D0
:1009AE00E0D0C8D0020ED96FF8DD00C08CF000C0C8
:1009BE00D0F0E9DE00C08CF09651002600C08CF01D
:1009CE0000C0D0F0BFDE00C08CF01F0E0014016E10
:1009DE00130E015C04E3E10E8C178C7B09D01F0E05
:1009EE008C15016E0150000803E3120E8C138C7BE4
:1009FE00020ED06F8CC0D1F0DEDEB3D0010E00013E
:100A0E00D96FCBDD00C08DF000C0D0F0BCDE00C0D1
:100A1E008DF096510024016E01C08DF03C0E015CEC
:100A2E00D8B08D6B8D51000802E33B0E8D6F8DC0DB
:100A3E00D0F088DE00C08DF0010ED06F00C0D1F076
:100A4E00BADE8FD00001965303E0D06BD16BB3DECC
:100A5E0088D0030E0001D96FA0DD00C08FF000C05A
:100A6E00D0F091DE00C08FF09651002600C08FF0BE
:100A7E0000C0D0F067DE00C08FF0320E005C02E3E3
:100A8E00010E8F6F8F51000802E3310E8F6F030E30
:100A9E00D06F8FC0D1F08FDE64D0050E0001D96FFC
:100AAE007CDD00C094F000C0D0F06DDE00C094F08C
:100ABE009651002600C094F000C0D0F043DE00C076
:100ACE0094F0120E005C02E3010E946F9451000834
:100ADE0002E3120E946F050ED06F94C0D1F06BDE50
:100AEE0040D0030E0001D96F58DD00C095F000C054
:100AFE00D0F049DE00C095F096518F25006E00C0F3
:100B0E0095F000C0D0F01EDE00C095F0500E005CD7
:100B1E00D8B0956B7F0E006E800E005C02E1955191
:100B2E00FF0802E3990E956F060ED06F95C0D1F0B7
:100B3E0042DE17D000018E51010AD8B433D78E5140
:100B4E00020AD8B45BD78E51030AD8B47BD78E5124
:100B5E00040AD8B47ED78E51050A9FE08E51060A3C
:100B6E00C0E036DE00C0DBF0000EDC6F010ED96F88
:100B7E00070EDA6FBADC81DE00C0DBF0000EDC6F30
:100B8E00020ED96F070EDA6FB0DC020E0B6E040E7A
:100B9E000C6EBA0E0D6E0D2EFED70C2EFCD70B2E34
:080BAE00FAD70000C0D6FFD702
:100C2E0010EE15F0770E006E010E016EB60EF66E1A
:0E0C3E000B0EF76E000EF86E16EC03F01200AF
:100BB60073657442746E20707265737365640D0A92
:010BC600002E
:0E0BC7004469676974616C20436C6F636B0056
:070BD50054696D653A200030
:0C0BDC005541525420496E69740D0A0006
:0C0BE8004C434420696E6974200D0A0023
:070BF400446174653A200022
:0A0BFB00426F6F74204F4B0D0A008B
:0F0C050064733133303720696E6974200D0A0033
:100C140064733133303720696E6974206661696C9E
:050C240065640D0A00EB
:040C290000000000C7
:020000040030CA
:0D000100281F3CFFBF81FF0FC00FE00F4024
:00000001FF
