:10000000E9EF05F00000000000EF00F00000000044
:0A0010000000000000000000F3D71C
:10001C000F0E0C6E470E0D6E0D2EFED70C2EFCD750
:06002C00000000001200BC
:0A003200210E0D6E0D2EFED71200F8
:06003C00000000001200AC
:100042000B840BAE2CEF00F0010E036E026A016A04
:0A005200006A0A360232FF0E1200A7
:08005C000AAE029E000E120024
:1000640050BE02D0819601D0818650BC02D08194CA
:1000740001D0818450BA02D0819201D0818250B8DB
:1000840002D0819001D081803DB002D0818801D01E
:100094008198818AD1DF819A50B602D0819601D0AD
:1000A400818650B402D0819401D0818450B202D0B0
:1000B400819201D0818250B002D0819001D08180A0
:1000C4003DB002D0818801D08198818AB5DF819AC0
:0C00D4003DA002D0A1DF01D0AADF120085
:0E00E000026A016A006A086A036A000E1200D2
:1000EE000B820BAE81EF00F00368026801680068B6
:0800FE000A360232FF0E120067
:100106000C6A0E6A0250D8A49CEF00F001C002F0FF
:1001160000C001F0006A0E860250D8A49CEF00F0E1
:1001260001C002F0016A0E960E880250D8B4AEEFF6
:1001360000F00E50035ED8A4D8A0B3EF00F0D8901C
:1001460002BEB8EF00F0003601360236032EA3EFEA
:1001560000F0B3EF00F0010E0C6EBFDFBBEF00F056
:10016600020E0C6E6BDFBBEF00F0040E0C6E73DF3D
:02017600120075
:080178000B6A0B86FF0E12005A
:100180004CC004F04DC005F004C002F005C003F0FF
:10019000044A052A4EC000F04FC001F04E4A4F2AD3
:1001A00000C0E9FF01C0EAFF02C0E1FF03C0E2FFB7
:1001B000EECFE6FF02C0E9FF03C0EAFFEE5201E026
:0C01C000E3D74CC000F04DC001F012006D
:1001CC000D6A086A0050D8B4000C04180A6E0ABEF6
:1001DC000D1E0B6A04AE02D0041E042A00AE02D01F
:1001EC00001E002A005004100A6E0ABE1FD00450D4
:1001FC00085E003600340836045008260036060E19
:10020C000C6E00340836045000B0085E00A00826BE
:10021C0000360C2EF6D700A008260BB015D00DAE6C
:10022C00000C001E002A081E082A000C04AE09D07F
:10023C0000BE04D00050086E006AF1D7006A002A94
:10024C00000C001E0B2AD3D7082A0450085CD8A433
:0E025C00E6D7086A002A00AEE2D7FF0C1200B7
:0C026A000E0E0D6E0D2EFED700001200CF
:10027600086A096A000E07620364C0EF01F00250C3
:1002860006180A6E075003267E0ED8A051EF01F01D
:10029600035ED8B0C4EF01F055EF01F0035ED8A0BD
:1002A600C8EF01F0028E068E02C00EF001C00BF000
:1002B60000C00DF000500402F4CF0CF0015005020E
:1002C600F4CF00F0F3CF08F00402F3500C26F450FC
:1002D6000822000E00220D500502F3500C26F450A1
:1002E6000822000E002202500402F3500826F450A1
:1002F600002202500502016A000E0122F350002678
:10030600F45001220D500602F3500826F450002244
:10031600026A000E012202220B500602F35000264A
:10032600F4500122000E02220E500602F35001265E
:10033600F450022202BEA8EF01F00836003601365C
:1003460002360306D8B4C8EF01F0BBEF01F0D8803F
:10035600800E08640030000E002201220222D8A07E
:10036600BBEF01F0023201320032034AC4EF01F062
:100376000AAE029E000ECAEF01F0010EAEDECAEF13
:1003860001F0020EB1DECAEF01F0040E57DE1200D4
:0C0396003D904CC050F063DE3D80120032
:1003A2000A6A0350D8A40A800750D8A40A820A50C5
:1003B200D8B434EF02F0030AD8B4EDEF01F00AB07A
:1003C200E8EF01F006AE32EF02F030EF02F002AEDB
:1003D20030EF02F032EF02F00250800B0A6E029E02
:1003E2000650800B069E0A18D8B4FEEF01F00A50A0
:1003F200D8B430EF02F032EF02F00750035CD8B409
:1004020008EF02F0D8A024EF02F02AEF02F0065023
:10041200025CD8B412EF02F0D8A024EF02F02AEF67
:1004220002F00550015CD8B41CEF02F0D8A024EF12
:1004320002F02AEF02F00450005CD8B434EF02F06C
:10044200D8B02AEF02F00A52D8B432EF02F030EFFD
:1004520002F00A52D8B430EF02F032EF02F0D88044
:0E0462001200D8901200D880D8841200120028
:10047000939A93989390939293949396819A819858
:100480008196819481928190C9DDC8DDC7DD81822A
:100490008180818AD3DD819AC1DD818ACFDD819A15
:1004A000BDDD818ACBDD819AB9DD8190818AC6DD8F
:1004B000819AB4DD818AC2DD819A81928186818AA6
:1004C000BDDD819AABDD81968180818AB7DD819A1D
:1004D0008190818AB3DD819AA1DD818AAFDD819A25
:1004E0008180818AABDD819A99DD8190818AA6DD48
:1004F000819A8186818481828180818A9FDD819A2F
:060500008DDD3D801200BC
:10050600440E356E0B0E366E3E0E376E000E386E8E
:10051600C26A211C006E0050C1160F0EC012C08E9A
:04052600C28012007D
:10052A000FD0800E3E6E19D0C00E3E6E16D0940EBD
:10053A003E6E13D0D40E3E6E10D0800E3E6E0DD09D
:10054A003E50010AEEE03E50020AEEE03E50030A37
:10055A00EEE03E50040AEEE0F0D73F04006E3E5053
:10056A00002600C03EF000C050F077DD3D90426AA0
:10057A0042504024E96E000E4120EA6EEE520BE032
:10058A0042504024E96E000E4120EA6EEECF4CF054
:0A059A00FDDE422AEDD73D8012007D
:1005A4000900F5CFE6FF0006FBE10106F9E11200C0
:1005B4000450000A12E10550000A0FE10650000A37
:1005C4000CE10750000A09E1FF0E006EFF0E016EF8
:1005D4007F0E026EFF0E036EA4D0086A096A0750EC
:1005E400D8B485EF03F00350D8B489EF03F0025078
:1005F40006180A6E028E068E0E6A02C008F001C04A
:100604000CF000C00DF004500D5E0550D8A0053C60
:100614000C5E0650D8A0063C085E086A0C6A0D6A97
:10062400D8A01CEF03F0D890023201320032083215
:10063400010E0E6E0750035ED8A029EF03F07E0E64
:100644000E240326D8B08DEF03F02FEF03F07E0EB7
:100654000E240326D8A091EF03F0180E0B6E0D366E
:100664000C3608360036013602360E360450005E6B
:100674000550D8A0053C015E0650D8A0063C025E99
:1006840006340E120EA04AEF03F00D8055EF03F06E
:10069400045000260550D8B0053C01260650D8B0B9
:1006A400062802260D900B2E31EF03F07BEF03F0AA
:1006B400D8900036013602360E360450005E0550DE
:1006C400D8A0053C015E0650D8A0063C025E063464
:1006D4000E10010B0D26D8B00C2AD8B4082AD8A4C1
:1006E4007BEF03F008320C320D32032AD8B48DEFBD
:1006F40003F00AAE089E0850026E0C50016E0D50B5
:10070400006E93EF03F0010E35DD93EF03F0020E5C
:10071400E5DC93EF03F0040EE8DC93EF03F0080E3E
:040724008EDC120055
:100728004A6A4B6A3EC046F03FC047F040C048F0B6
:1007380041C049F04950FF0A08E14850FF0A05E165
:100748004750FF0A02E14650FF0A0CE142C04CF054
:1007580043C04DF0220E4E6E000E4F6E0DDD030E9F
:10076800006EEBD1010E446E48AE0ED0800E4818D4
:10077800006E00C048F0442A42C0E1FF43C0E2FFD7
:100788002D0EE66E424A432A000E006E491808E113
:100798000050481805E10050471802E14650000A89
:1007A8000BE142C04CF043C04DF01F0E4E6E000EE0
:1007B8004F6EE2DC006AC1D14950FF0A08E1485097
:1007C800000A05E14750000A02E14650000A0CE120
:1007D80042C04CF043C04DF01B0E4E6E000E4F6EE3
:1007E800CBDC44C000F0A9D1000E046E000E056EEB
:1007F800000E066E7F0E076E46C000F047C001F07F
:1008080048C002F049C003F0C8DD010ED8B0000EA0
:10081800006E00521BE046C000F047C001F048C01F
:1008280002F049C003F0000E046E000E056E200EA3
:10083800066E820E076E1BDD00C046F001C047F051
:1008480002C048F003C049F04B06CED7000E046E34
:10085800000E056E200E066E820E076E46C000F072
:1008680047C001F048C002F049C003F096DD000E11
:10087800D8B0010E006E00521BE046C000F047C021
:1008880001F048C002F049C003F0CD0E046ECC0E52
:10089800056E4C0E066E7B0E076EE9DC00C046F056
:1008A80001C047F002C048F003C049F04B2ACED738
:1008B800FF0E4614086EFF0E4714096E7F0E48148B
:1008C8000A6E000E49140B6E08C004F009C005F04A
:1008D8000AC006F00BC007F0043604900536063649
:1008E8000736000E4614006E000E4714016E000E07
:1008F8004814026EFF0E4914036E00C046F001C092
:1009080047F002C048F003C049F004504610006E9A
:1009180005504710016E06504810026E07504910E6
:10092800036E00C046F001C047F002C048F003C0A3
:1009380049F07F0E495C006E00C045F0010E496E1B
:1009480000C004F046C000F047C001F048C002F003
:1009580049C003F0045007E0003600900136023623
:100968000336FF0FF8D700C046F001C047F002C0B9
:1009780048F003C049F042C0E1FF43C0E2FF4950DC
:10098800300FE66E424A432A800E4B18006E800EE6
:10099800010A005C08E3800E060A006E800E4B1800
:1009A800005C01E30AD042C0E1FF43C0E2FF2E0E23
:1009B800E66E424A432A010E4A6E060E456E4550BF
:1009C800000A54E0496A46C000F047C001F048C038
:1009D80002F049C003F000360090013602360336B3
:1009E800003600900136023603364650002647503E
:1009F8000122485002224950032200C046F001C09B
:100A080047F002C048F003C049F046C000F047C0B4
:100A180001F048C002F049C003F0003600900136EA
:100A28000236033600C046F001C047F002C048F065
:100A380003C049F042C0E1FF43C0E2FF4950300F14
:100A4800E66E424A432A4A50000A0EE14B064B50D2
:100A5800000A0AE142C0E1FF43C0E2FF2E0EE66E43
:100A6800424A432A010E4A6E4506A9D7FF0E422480
:100A7800E96EFF0E4320EA6EEE50300A05E1010EE2
:100A8800425E000E435AF2D7FF0E4224E96EFF0E73
:100A98004320EA6EEE502E0A04E1010E425E000E7B
:100AA800435A4B50000A43E042C0E1FF43C0E2FF13
:100AB800650EE66E424A432A800E4B18006E800E81
:100AC800000A005C0BE242C0E1FF43C0E2FF2D0ECA
:100AD800E66E424A432A4B5000084B6E4BC045F025
:100AE800800E090A006E800E4B18005C0FE20A0E99
:100AF800046E45C000F0E6EC00F042C0E1FF43C0E0
:100B0800E2FF0050300FE66E424A432A0A0E046E96
:100B180045C000F0E6EC00F008C000F042C0E1FF7C
:100B280043C0E2FF0050300FE66E424A432A42C0FB
:0C0B3800E1FF43C0E2FFE66A006A120021
:100B4400830EC2163EC000F00036009000360090BE
:100B54000050C21235EC01F0C282C2A201D0FDD70E
:100B6400C4CF01F0006A00C03FF001C040F0C350A0
:100B74000012000E011200C03FF001C040F0000E50
:100B84000014026E0150800B036E000E031802E184
:100B9400000E021802E03F6A406A3FC000F040C005
:040BA40001F012004A
:100BA8000050086E0150006E016A026A036A0B6AFF
:100BB8000C6A960E036E0A6A00C001F008C000F0C5
:0A0BC800086A026A83EC00F01200D4
:100BD20058EC06F00F01396B020E3C6F968292DCE4
:100BE20046DC010E506E32EC00F00C0E506E32EC10
:100BF20000F0010E3E6E010E3F6E150E406E000EAD
:100C0200416E92DC060E3E6E9CDF00C019F001C000
:100C12001AF0C9DF000E046E400E056E1C0E066E41
:100C22008B0E076E3BEC01F0000E046E000E056E9B
:100C3200000E066E890E076EBCDC00C039F001C0E2
:100C42003AF002C03BF003C03CF0000E046E000E0E
:100C5200056E7A0E066E880E076EABDC00C039F0A8
:100C620001C03AF002C03BF003C03CF000C03EF0CD
:100C720001C03FF002C040F003C041F0260E426EB8
:100C8200000E436E50DD020E3E6E010E3F6E260ECA
:0C0C9200406E000E416E48DCB5D7FFD765
:100CB00010EE15F0110E006E010E016E9E0EF66E16
:0E0CC0000C0EF76E000EF86ED2EC02F0120071
:040C9E00414443008A
:020CA200000050
:040CA400494E46006F
:020CA80030001A
:010CAA000F3A
:040CAB004E614E0048
:020000040030CA
:0D000100271F3CFFBF81FF0FC00FE00F4025
:00000001FF
