:10000000F5EF00F00000000000EF00F0000000003D
:0A0010000000000000000000F3D71C
:06001C00000000001200CC
:100022000F0E0C6E470E0D6E0D2EFED70C2EFCD74A
:06003200000000001200B6
:0A003800210E0D6E0D2EFED71200F2
:100042002FBE02D0819601D081862FBC02D081942E
:1000520001D081842FBA02D0819201D081822FB83F
:1000620002D0819001D0818028B002D0818801D055
:100072008198818AD2DF819A2FB602D0819601D0EF
:1000820081862FB402D0819401D081842FB202D014
:10009200819201D081822FB002D0819001D08180E3
:1000A20028B002D0818801D08198818AB6DF819AF6
:0C00B20028A002D0B5DF01D0BEDF120094
:0C00BE0028902EC02FF0BEDF288012001A
:1000CA000900F5CFE6FF0006FBE10106F9E112009F
:1000DA00939A93989390939293949396819A8198F2
:1000EA00819681948192819097DF96DF95DF818254
:1000FA008180818A8EDF819A8FDF818A8ADF819A65
:10010A008BDF818A86DF819A87DF8190818A81DF0E
:10011A00819A82DF818A7DDF819A81928186818AB2
:10012A0078DF819A79DF81968180818A72DF819A6C
:10013A008190818A6EDF819A6FDF818A6ADF819A74
:10014A008180818A66DF819A67DF8190818A61DF97
:10015A00819A8186818481828180818A5ADF819A0B
:06016A005BDF288012009B
:100170000FD0800E296E19D0C00E296E16D0940EA5
:10018000296E13D0D40E296E10D0800E296E0DD09A
:100190002950010AEEE02950020AEEE02950030A34
:1001A000EEE02950040AEEE0F0D72A04006E295050
:1001B000002600C029F000C02FF043DF28902D6AF0
:1001C0002D502B24E96E000E2C20EA6EEE520BE02F
:1001D0002D502B24E96E000E2C20EA6EEECF2EF06F
:0A01E0006EDF2D2AEDD728801200F3
:1001EA0021EC01F00F01396B73DF010E2F6E24DF52
:1001FA000C0E2F6E21DF010E296E010E2A6E150ECE
:10020A002B6E000E2C6EAFDF020E296E010E2A6EC7
:10021A001E0E2B6E000E2C6EA6DF0F0E2F6E0CDF3D
:04022A00FFD7FFD724
:1002420010EE15F0130E006E010E016E2E0EF66EFC
:0E025200020EF76E000EF86E65EC00F0120062
:09022E005072696E74696E67007C
:0A023700536F6D657468696E67000F
:020000040030CA
:0D000100231F3CFFBF81FF0FC00FE00F4029
:00000001FF
