:0400000092EF00F08B
:1000080000C019F001C018F00BC017F00CC016F0B2
:100018000DC015F0010E486E000E496E800E006E80
:10002800800E4918005C02E14850040810E38C7601
:10003800030E0B6E080E0C6E770E0D6E0D2EFED78E
:100048000C2EFCD70B2EFAD7484A492AE7D72AD8CC
:1000580019C000F018C001F017C00BF016C00CF062
:0600680015C00DF01100AF
:0E006E00ACB202D00000FCD756C0ADFF1200AD
:10007C00556A52C0E9FF53C0EAFFEECF54F054501A
:10008C00000A0DE054C056F0ECDF552A55505224AE
:10009C00E96E000E5320EA6EEECF54F0F0D712004A
:1000AC00AECF01F0ABA202D0AB98AB8801C000F090
:0200BC00120030
:1000BE000900F5CFE6FF0006FBE10106F9E11200AB
:1000CE006E0E446E000E456E560E466E000E476E58
:1000DE00AC0E406E000E416E000E426E000E436E70
:1000EE00FF0E4E6EFF0E4F6E000E506E000E516ED6
:1000FE00FF0E4A6EFF0E4B6E000E4C6E000E4D6ED6
:10010E00AC8A900EAB6E948E949C9EAA03D0AECF0A
:06011E0000F0FBD7120007
:1001240000EC01F0C00EF26E200E9D6E0F013B6BD1
:10013400396B956A3A6BB886B06A670EAF6EAC8459
:10014400C4DF060E0B6E130E0C6EAD0E0D6E0D2E6F
:10015400FED70C2EFCD70B2EFAD7000000001A0E87
:10016400526E000E536E88DF060E0B6E130E0C6E6D
:10017400AD0E0D6E0D2EFED70C2EFCD70B2EFAD71E
:10018400000000008C70030E0B6E080E0C6E770ED0
:100194000D6E0D2EFED70C2EFCD70B2EFAD78C72BB
:1001A400030E0B6E080E0C6E770E0D6E0D2EFED721
:1001B4000C2EFCD70B2EFAD78C74030E0B6E080E84
:1001C4000C6E770E0D6E0D2EFED70C2EFCD70B2E5B
:0601D400FAD7D8D7FFD7CF
:1002000010EE1AF0260E006E010E016EDA0EF66E7A
:0E021000010EF76E000EF86E5FEC00F01200AB
:1001DA00537461727420747970696E6720746F2029
:1001EA00636175736520616E20496E7465727275FC
:0601FA007074200D0A00E4
:020000040030CA
:0D000100271F3CFFBF81FF0FC00FE00F4025
:00000001FF
