:100000001BEF03F00000000000EF00F00000000014
:0A0010000000000000000000F3D71C
:10001C000B1E0A1E091E081E082AD8B4092AD8B4B9
:08002C000A2AD8B40B2A1200C5
:100034000450085E0550D8A0053C095E0650D8A0BF
:10004400063C0A5E0750D8A0073C0B5E0336070E39
:100054000C6E0334083609360A360B36045003A0F6
:100064000ED0085E0550D8A0053C095E0650D8A005
:10007400063C0A5E0750D8A0073C0B5E0DD008264C
:100084000550D8B0053C09260650D8B0063C0A26CF
:100094000750D8B0073C0B2603360C2EDAD70234AF
:1000A400083609360A360B36045003A00ED0085E13
:1000B4000550D8A0053C095E0650D8A0063C0A5E4F
:1000C4000750D8A0073C0B5E0DD008260550D8B0C9
:1000D400053C09260650D8B0063C0A260750D8B07D
:1000E400073C0B260236070E0C6E0234083609361E
:1000F4000A360B36045002A00ED0085E0550D8A074
:10010400053C095E0650D8A0063C0A5E0750D8A0FC
:10011400073C0B5E0DD008260550D8B0053C0926D7
:100124000650D8B0063C0A260750D8B0073C0B2628
:1001340002360C2EDAD70134083609360A360B3665
:10014400045002A00ED0085E0550D8A0053C095EFC
:100154000650D8A0063C0A5E0750D8A0073C0B5EA8
:100164000DD008260550D8B0053C09260650D8B055
:10017400063C0A260750D8B0073C0B260136070E6A
:100184000C6E0134083609360A360B36045001A0C9
:100194000ED0085E0550D8A0053C095E0650D8A0D4
:1001A400063C0A5E0750D8A0073C0B5E0DD008261B
:1001B4000550D8B0053C09260650D8B0063C0A269E
:1001C4000750D8B0073C0B2601360C2EDAD7003482
:1001D400083609360A360B36045001A00ED0085EE4
:1001E4000550D8A0053C095E0650D8A0063C0A5E1E
:1001F4000750D8A0073C0B5E0DD008260550D8B098
:10020400053C09260650D8B0063C0A260750D8B04B
:10021400073C0B260036070E0C6E003408360936F0
:100224000A360B36045000A00ED0085E0550D8A044
:10023400053C095E0650D8A0063C0A5E0750D8A0CB
:10024400073C0B5E0DD008260550D8B0053C0926A6
:100254000650D8B0063C0A260750D8B0073C0B26F7
:1002640000360C2EDAD700B00ED004500826055004
:10027400D8B0053C09260650D8B0063C0A260750DB
:08028400D8B0073C0B26120064
:0C028C000E0E0D6E0D2EFED700001200AD
:100298000B6A0A6A096A00500402F4CF09F0F3CF26
:1002A80008F001500502F4CF0BF0F3CF0AF000502C
:1002B8000502F3500926F4500A22E86A0B2201507D
:1002C8000402F3500926F4500A22E86A0B2208C0F7
:1002D80000F009C001F00AC002F00BC003F01200E0
:1002E8000450000A12E10550000A0FE10650000A06
:1002F8000CE10750000A09E1FF0E006EFF0E016EC7
:10030800FF0E026E7F0E036E97D00C6A07BE0C2A92
:100318000D6A0B6A0A6A096A086A0350021001101A
:100328000010D8B484D0035007180E6E0EBE0D1EF0
:1003380007AE0BD0041E051E061E071E042AD8B4DD
:10034800052AD8B4062AD8B4072A03AE0BD0001E53
:10035800011E021E031E002AD8B4012AD8B4022A9C
:10036800D8B4032A035007100E6E0EBE1CD05EDEF2
:100378000CBE36D00DAE5BD0001E011E021E031E41
:10038800002AD8B4012AD8B4022AD8B4032A081EED
:10039800091E0A1E0B1E082AD8B4092AD8B40A2A2C
:1003A800D8B40B2A44D007AE15D003BE0DD00350E5
:1003B8000B6E02500A6E0150096E0050086E036AF7
:1003C800026A016A006AD6D7036A026A016A006A89
:1003D800002A000C031E021E011E001E0C8EC7D729
:1003E800082AD8B4092AD8B40A2AD8B40B2A04503F
:1003F800085CD8A4BFD70550095CD8A4BBD7065061
:100408000A5CD8A4B7D707500B5CD8A4B3D70B6A3B
:100418000A6A096A086A002AD8B4012AD8B4022AE2
:10042800D8B4032A03AEA6D70E6A0E88FF0C0E6A4C
:0A0438000CA001D0EFDD000F120050
:10044200220E0C6E086A096A0A6A0B6A0C06D8B494
:100452001FD0D8900B320A320932083203320232EC
:1004620001320032D8A0F2D70C06D8B409D0045019
:1004720008260550092206500A2207500B22EAD705
:10048200045008260550092206500A2207500B2262
:02049200120056
:10049400BB50010F006E016A000E012220C004F05F
:1004A400000E056EF7DE060E026E00C004F001C0F9
:1004B40005F0025005E005320432059EFF0FFAD71D
:1004C400040E016E04C000F0015004E000360090F8
:1004D400FF0FFBD7300E0014036E04C000F005C0FC
:1004E40001F001320032019E01320032019E00C04F
:0C04F400BEFF0F0EBD160350BD1212001B
:10050000BB50010F006E016A000E012220C004F0F2
:10051000000E056EC1DE060E026E00C004F001C0C2
:1005200005F0025005E005320432059EFF0FFAD7B0
:10053000040E016E04C000F0015004E0003600908B
:10054000FF0FFBD7300E0014036E04C000F005C08F
:1005500001F001320032019E01320032019E00C0E2
:0C05600067FF0F0E6616035066121200B3
:0A056C009494BA840C0EBD12120024
:08057600676A6698669A12009C
:08057E00BE6ABD98BD9A12008F
:0A0586009492BA840C0E6612120063
:100590000900F5CFE6FF0006FBE10106F9E11200D4
:1005A000C26A151C006E0050C1160F0EC012C08E1C
:1005B00020C000F000360090003600900050C212BB
:1005C000C28064DEC282C2A201D0FDD7C4CF01F0D6
:1005D000006A00C021F001C022F0C3500012000EDA
:1005E000011200C021F001C022F0C290000E0014E0
:1005F000026E0150800B036E000E031802E1000E24
:10060000021802E0216A226A21C000F022C001F033
:020610001200D6
:10061200FF0E166EFF0E176EFF0E186EFF0E196E8E
:10062200C26A151C006E0050C1160F0EC012C08E99
:04063200C280120070
:100636006CEC03F00F013A6B396B936A946A928003
:10064600BA80BA827C0EBB6E97DFBA80BA827C0E05
:10065600BB6E8EDF88DF94DFD9DF020E816E206AE3
:100666009CDF00C01AF001C01BF0000E026E036E84
:10067600FF0E046E000E056E066E076EDFDE00C00E
:100686001CF001C01DF002C01EF003C01FF0FF0EDB
:10069600046E030E056E000E066E076E22DE00C0A7
:1006A6001CF001C01DF002C01EF003C01FF000C008
:1006B60020F0EDDE1CC020F020DF1A0E0C6EF80EC6
:1006C6000D6E0D2EFED70C2EFCD70000C8D7FFD717
:1006D80010EE15F0010E006E010E016ED60EF66ECC
:0E06E800060EF76E000EF86EC8EC02F012005F
:0106D6000F14
:020000040030CA
:0D000100231F3CFFBF81FF0FC00FE00F4029
:00000001FF
