:1000000094EF08F00000000000EF00F00000000096
:0A0010000000000000000000F3D71C
:10001C000F0E0C6E470E0D6E0D2EFED70C2EFCD750
:06002C00000000001200BC
:06003200000000001200B6
:0A003800210E0D6E0D2EFED71200F2
:100042000B840BAE2CEF00F0010E036E026A016A04
:0A005200006A0A360232FF0E1200A7
:08005C000AAE029E000E120024
:0E006400026A016A006A086A036A000E12004E
:10007200086A096A100E0C6E0134083609360450FB
:10008200085E0550D8A0053C095ED8B007D00450E0
:1000920008260550D8B0053C0926D890003601360E
:0600A2000C2EEAD712004B
:1000A8000001A6BF02D0829601D08286A6BD02D0EA
:1000B800829401D08284A6BB02D0829201D082822F
:1000C800A6B902D0829001D082807CB102D0828809
:1000D80001D08298828AA9DF829AA6B702D0829636
:1000E80001D08286A6B502D0829401D08284A6B3BC
:1000F80002D0829201D08282A6B102D0829001D031
:1001080082807CB102D0828801D08298828A8DDF79
:0E011800829A7CA102D07EDF01D08ADF120025
:100126000B820BAE9DEF00F0036802680168006861
:080136000A360232FF0E12002E
:10013E00086A096A000E0762036424EF01F0025098
:10014E0006180A6E075003267E0ED8A0B5EF00F0F3
:10015E00035ED8B028EF01F0B9EF00F0035ED8A02F
:10016E002CEF01F0028E068E02C00EF001C00BF0D5
:10017E0000C00DF000500402F4CF0CF00150050247
:10018E00F4CF00F0F3CF08F00402F3500C26F45035
:10019E000822000E00220D500502F3500C26F450DA
:1001AE000822000E002202500402F3500826F450DA
:1001BE00002202500502016A000E0122F3500026B1
:1001CE00F45001220D500602F3500826F45000227E
:1001DE00026A000E012202220B500602F350002684
:1001EE00F4500122000E02220E500602F350012698
:1001FE00F450022202BE0CEF01F008360036013632
:10020E0002360306D8B42CEF01F01FEF01F0D880B0
:10021E00800E08640030000E002201220222D8A0B7
:10022E001FEF01F0023201320032034A28EF01F0D3
:10023E000AAE029E000E2EEF01F0010E0CDF2EEF25
:10024E0001F0020E69DF2EEF01F0040EF3DE120054
:10025E000C6A0E6A0250D8A448EF01F001C002F0F9
:10026E0000C001F0006A0E860250D8A448EF01F0DB
:10027E0001C002F0016A0E960E880250D8B45AEFF1
:10028E0001F00E50035ED8A4D8A05FEF01F0D89015
:10029E0002BE64EF01F0003601360236032E4FEF38
:1002AE0001F05FEF01F0010E0C6ED5DE67EF01F08D
:1002BE00020E0C6EBFDE67EF01F0040E0C6EC7DE91
:0202CE0012001C
:1002D0000D6A086A0050D8B4000C04180A6E0ABEF1
:1002E0000D1E0B6A04AE02D0041E042A00AE02D01A
:1002F000001E002A005004100A6E0ABE1FD00450CF
:10030000085E003600340836045008260036060E13
:100310000C6E00340836045000B0085E00A00826B9
:1003200000360C2EF6D700A008260BB015D00DAE67
:10033000000C001E002A081E082A000C04AE09D07A
:1003400000BE04D00050086E006AF1D7006A002A8F
:10035000000C001E0B2AD3D7082A0450085CD8A42E
:0E036000E6D7086A002A00AEE2D7FF0C1200B2
:0E036E0000017C919FC0A6F098DE7C811200F9
:0C037C000E0E0D6E0D2EFED700001200BC
:100388000A6A0350D8A40A800750D8A40A820A50DF
:10039800D8B427EF02F0030AD8B4E0EF01F00AB0AE
:1003A800DBEF01F006AE25EF02F023EF02F002AE1C
:1003B80023EF02F025EF02F00250800B0A6E029E36
:1003C8000650800B069E0A18D8B4F1EF01F00A50C7
:1003D800D8B423EF02F025EF02F00750035CD8B43D
:1003E800FBEF01F0D8A017EF02F01DEF02F0065066
:1003F800025CD8B405EF02F0D8A017EF02F01DEFA9
:1004080002F00550015CD8B40FEF02F0D8A017EF46
:1004180002F01DEF02F00450005CD8B427EF02F0A0
:10042800D8B01DEF02F00A52D8B425EF02F023EF3E
:1004380002F00A52D8B423EF02F025EF02F0D88078
:0E0448001200D8901200D880D8841200120042
:100456009FC004F0A0C005F004C002F005C003F080
:10046600044A052AA1C000F0A2C001F00001A14B78
:10047600A22B00C0E9FF01C0EAFF02C0E1FF03C0F2
:10048600E2FFEECFE6FF02C0E9FF03C0EAFFEE524D
:0E04960001E0E2D79FC000F0A0C001F012000C
:0804A4000B6A0B86FF0E12002B
:1004AC000CB098EF02F00CA23EEF03F00E6A000EB7
:1004BC000264AFEF02F0F00E0214D8A47AEF02F04F
:1004CC00023A01380F0B02260138F00B016E00388E
:1004DC000F0B01260038F00B006E08380F0B0026AE
:1004EC000838F00B086E0E84D89002BE93EF02F021
:1004FC0008360036013602360E2A02BE93EF02F0A1
:10050C0008360036013602360E2A02BE93EF02F090
:10051C0008360036013602360E2A0E50036434EFCC
:10052C0003F0035E0BBC08AE39EF03F0D880800EED
:10053C0008640030000E002201220222D8A039EFFC
:10054C0003F0023201320032034A3EEF03F039EF7E
:10055C0003F001C002F000C001F008C000F0086A0E
:10056C00000E0E860264E6EF02F0F00E0214D8A420
:10057C00CEEF02F0023A01380F0B02260138F00BD5
:10058C00016E00380F0B01260038F00B006E0E8444
:10059C00D89002BE93EF02F00036013602360E2AD6
:1005AC0002BE93EF02F00036013602360E2A02BE6E
:1005BC0093EF02F00036013602360E2A93EF02F06A
:1005CC0001C002F000C001F0006A000E0E960E8809
:1005DC00026413EF03F0F00E0214D8A4FEEF02F045
:1005EC00023A01380F0B02260138F00B016E0E8413
:1005FC00D89002BE93EF02F0013602360E2A02BEEC
:10060C0093EF02F0013602360E2A02BE93EF02F08F
:10061C00013602360E2A93EF02F001C002F0016A95
:10062C00000E0E86026443EF03F0F00E0214D8A401
:10063C0022EF03F0023A0E84D89002BE93EF02F040
:10064C0002360E2A02BE93EF02F002360E2A02BECA
:10065C0093EF02F002360E2A93EF02F0010E0C6EAD
:10066C00EADC46EF03F0020E0C6EF2DC46EF03F010
:10067C00040E0C6E52DD46EF03F0080E0C6EECDC33
:02068C0012005A
:0C068E00060E0D6E0D2EFED700001200AF
:10069A0000019F6BA16BA26B100EA36F040EA25DEB
:1006AA0029E2F00E816E120E006E000E016E810EAE
:1006BA000024E16E0F0E0120E26EA31D006E00C041
:1006CA00E6FFB2DCB1DC0F0E8114006E00C0A0F0B0
:1006DA0000520AE0A1C09FF0A05304E0A033A09FFB
:1006EA009F2BFAD7040EA26FA337A391040EA1275A
:0A06FA00A22BD4D79FC000F012001D
:100704000001A36B050EA35D0AE2A351A125E16ECE
:10071400000EA221E26E200EE66EA32BF3D7A351A6
:10072400A125E16E000EA221E26EE66AA307A351A1
:10073400A125A46F000EA221A56F0A0E046E000E5F
:10074400056E9FC000F0A0C001F091DC08C000F06D
:1007540009C001F0300E0026A4C0E1FFA5C0E2FFED
:1007640000C0E6FF0A0E046E000E056E9FC000F086
:10077400A0C001F07CDC00C09FF001C0A0F0000E1E
:10078400011802E1000E001801E102D0A307CFD73F
:02079400120051
:10079600949A94989490949294949496829A829827
:1007A600829682948292829036DC35DC34DC8282B8
:1007B6008280828A3BDC829A2EDC828A37DC829AAD
:1007C6002ADC828A33DC829A26DC8290828A2EDCBC
:1007D600829A21DC828A2ADC829A82928286828AA4
:1007E60025DC829A18DC82968280828A1FDC829AB5
:1007F6008290828A1BDC829A0EDC828A17DC829ABD
:100806008280828A13DC829A06DC8290828A0EDCDF
:10081600829A8286828482828280828A07DC829A97
:0A0826000EEC00F000017C811200CE
:10083000120E006E000E016E810E0024E16E0F0E8E
:0A0840000120E26EFF0EE66E1200CA
:10084A0010D0800E0001916F1AD0C00E916F17D090
:10085A00940E916F14D0D40E916F11D0800E916FB7
:10086A000ED000019151010AECE09151020AEDE02B
:10087A009151030AEDE09151040AEDE0EFD7920598
:10088A00006E9151002600C091F000C0A6F007DC6E
:10089A007C91956B95519325E96E000E9421EA6E31
:1008AA00EE520BE095519325E96E000E9421EA6E03
:0E08BA00EECF9FF057DD952BEDD77C8112001D
:1008C8000900F5CFE6FF0006FBE10106F9E1120099
:1008D800E0DE00C091F00F0E8114006E02E0D3DE5E
:0808E800FAD791C000F01200E4
:1008F0000450000A12E10550000A0FE10650000AF8
:100900000CE10750000A09E1FF0E006EFF0E016EB8
:100910007F0E026EFF0E036EA7D0086A096A0750A9
:10092000D8B423EF05F00350D8B427EF05F00250F8
:1009300006180A6E028E068E0E6A02C008F001C00A
:100940000CF000C00DF004500D5E0550D8A0053C21
:100950000C5E0650D8A0063C085E086A0C6A0D6A58
:10096000D8A0BAEF04F0D890023201320032083237
:10097000010E0E6E0750035ED8A0C7EF04F07E0E86
:100980000E240326D8B02CEF05F0CDEF04F07E0E38
:100990000E240326D8A031EF05F0180E0B6E0D368D
:1009A0000C3608360036013602360E360450005E2C
:1009B0000550D8A0053C015E0650D8A0063C025E5A
:1009C00006340E120EA0E8EF04F00D80F3EF04F0F1
:1009D000045000260550D8B0053C01260650D8B07A
:1009E000062802260D900B2ECFEF04F019EF05F02C
:1009F000D8900036013602360E360450005E05509F
:100A0000D8A0053C015E0650D8A0063C025E063424
:100A10000E10010B0D26D8B00C2AD8B4082AD8A481
:100A200019EF05F008320C320D32032AD8B42CEF3E
:100A300005F00AAE089E0850026E0C50016E0D5073
:100A4000006E34EF05F0010E2DDD34EF05F0020EDF
:100A500032EC00F034EF05F0040E93EC00F034EFCC
:0A0A600005F0080E21EC00F0120072
:100A6A000050086E0150006E016A026A036A0B6A3E
:100A7A000C6A960E036E0A6A00C001F008C000F004
:0A0A8A00086A026A2FEC01F0120066
:100A940000C008F00B6A0C6A9E0E036E0A6A026AB2
:0C0AA400016A006A020E0C6EFFDC1200FA
:100AB00000019D6B9E6B91C099F092C09AF093C01B
:100AC0009BF094C09CF09C51FF0A08E19B51FF0AE7
:100AD00005E19A51FF0A02E19951FF0A0CE195C024
:100AE0009FF096C0A0F0780EA16F000EA26FB3DC4D
:100AF000030E006EEFD1010E976F9BAF0ED0800EEC
:100B00009B19006E00C09BF0972B95C0E1FF96C02B
:100B1000E2FF2D0EE66E954B962B000E006E9C1993
:100B200008E100509B1905E100509A1902E1995122
:100B3000000A0BE195C09FF096C0A0F06A0EA16F6D
:100B4000000EA26F88DC006AC5D19C51FF0A08E143
:100B50009B51000A05E19A51000A02E19951000AED
:100B60000CE195C09FF096C0A0F06C0EA16F000E36
:100B7000A26F71DC97C000F0ADD1000E046E000EC4
:100B8000056E000E066E7F0E076E99C000F09AC0CB
:100B900001F09BC002F09CC003F0C4EC01F0010E18
:100BA000D8B0000E006E00521CE099C000F09AC050
:100BB00001F09BC002F09CC003F0000E046E000E1A
:100BC000056E200E066E820E076E9FEC00F000C0D0
:100BD00099F001C09AF002C09BF003C09CF09E0700
:100BE000CCD7000E046E000E056E200E066E820E2F
:100BF000076E99C000F09AC001F09BC002F09CC043
:100C000003F0C4EC01F0000ED8B0010E006E0052EB
:100C10001CE099C000F09AC001F09BC002F09CC09B
:100C200003F0CD0E046ECC0E056E4C0E066E7B0EE0
:100C3000076E9FEC00F000C099F001C09AF002C06E
:100C40009BF003C09CF09E2BCCD7FF0E9915086E2D
:100C5000FF0E9A15096E7F0E9B150A6E000E9C15ED
:100C60000B6E08C004F009C005F00AC006F00BC006
:100C700007F004360490053606360736000E99153F
:100C8000006E000E9A15016E000E9B15026EFF0E8F
:100C90009C15036E00C099F001C09AF002C09BF051
:100CA00003C09CF004509911006E05509A11016E1A
:100CB00006509B11026E07509C11036E00C099F004
:100CC00001C09AF002C09BF003C09CF07F0E9C5DB7
:100CD000006E00C098F0010E9C6F00C004F099C037
:100CE00000F09AC001F09BC002F09CC003F00450D9
:100CF00007E000360090013602360336FF0FF8D7C2
:100D000000C099F001C09AF002C09BF003C09CF0B3
:100D100095C0E1FF96C0E2FF9C51300FE66E954B07
:100D2000962B800E9E19006E800E010A005C08E36F
:100D3000800E060A006E800E9E19005C01E30AD048
:100D400095C0E1FF96C0E2FF2E0EE66E954B962B06
:100D5000010E9D6F060E986F9851000A54E09C6B2F
:100D600099C000F09AC001F09BC002F09CC003F053
:100D70000036009001360236033600360090013608
:100D800002360336995100269A5101229B510222C4
:100D90009C51032200C099F001C09AF002C09BF060
:100DA00003C09CF099C000F09AC001F09BC002F013
:100DB0009CC003F00036009001360236033600C0B6
:100DC00099F001C09AF002C09BF003C09CF095C05E
:100DD000E1FF96C0E2FF9C51300FE66E954B962BDB
:100DE0009D51000A0EE19E079E51000A0AE195C03E
:100DF000E1FF96C0E2FF2E0EE66E954B962B010E9C
:100E00009D6F9807A9D7FF0E9525E96EFF0E9621D5
:100E1000EA6EEE50300A05E1010E955F000E965B1A
:100E2000F2D7FF0E9525E96EFF0E9621EA6EEE5081
:100E30002E0A04E1010E955F000E965B9E51000A9A
:100E400043E095C0E1FF96C0E2FF650EE66E954B6C
:100E5000962B800E9E19006E800E000A005C0BE23D
:100E600095C0E1FF96C0E2FF2D0EE66E954B962BE6
:100E70009E5100089E6F9EC098F0800E090A006E79
:100E8000800E9E19005C0FE20A0E046E98C000F0FE
:100E900068EC01F095C0E1FF96C0E2FF0050300F12
:100EA000E66E954B962B0A0E046E98C000F068EC27
:100EB00001F008C000F095C0E1FF96C0E2FF0050CD
:100EC000300FE66E954B962B95C0E1FF96C0E2FF82
:060ED000E66A006A120050
:100ED600C26A0001771D006E0050C1160F0EC012C7
:100EE600C08E91C000F00036009000360090005091
:100EF600C212C280BEEC01F0C282C2A201D0FDD7EE
:100F0600C4CF01F0006A00C092F001C093F0C35054
:100F16000012000E011200C092F001C093F0C290C0
:100F2600000E0014026E0150800B036E000E0318B3
:100F360002E1000E021802E0926B936B92C000F081
:060F460093C001F012004F
:100F4C000001936B946B91C003F092C004F091C0BC
:100F5C0005F092C006F003C0E9FF04C0EAFFEE50B2
:100F6C00200A04E19351941101E110D0010E936F0A
:100F7C00000E946F03C0E9FF04C0EAFF05C0E1FF57
:100F8C0006C0E2FFEECFE6FF054A062A03C001F0D9
:100F9C0004C002F0034A042A01C0E9FF02C0EAFFC0
:100FAC00EE50000AD8E191C000F092C001F012009E
:100FBC000001976B986B91C099F092C09AF0800EDB
:100FCC009219006E800E005C02E1000E915D0BE246
:100FDC00010E976F000E986F91510008996F92C097
:100FEC009AF0000E9A5799C09FF09AC0A0F093C047
:100FFC00A1F094C0A2F082EC03F0060E956F000EE7
:10100C00966F000E006E9651005C02E1955100083F
:10101C0019E295519325E16E96519421E26E010EE1
:10102C00955D006E000E9659016E00509325E96E89
:10103C0001509421EA6EEECFE6FF010E955F000E93
:10104C00965BDFD793C0E1FF94C0E2FF200EE66E03
:10105C00975198111AE0956B966B95519325E96E03
:10106C0096519421EA6EEE50200A03E1954B962B93
:10107C00F4D7010E955F000E965B95519325E16EAA
:0C108C0096519421E26E2D0EE66E1200CB
:1010980010D0800E0001916F1AD0C00E916F17D03A
:1010A800940E916F14D0D40E916F11D0800E916F61
:1010B8000ED000019151010AECE09151020AEDE0D5
:1010C8009151030AEDE09151040AEDE0EFD7920542
:1010D800006E9151002600C091F07C8100C0A6F0FE
:1010E80054EC00F07C9193C0A6F054EC00F07C81A5
:0210F8001200E4
:1010FA000001936B93519125E96E000E9221EA6EDD
:10110A00EE520CE093519125E96E000E9221EA6E9F
:0E111A00EECF9FF0B7EC01F0932BECD7120054
:1011280057EC0AF00F013A6B396B3B6B9280946A6B
:101138009590959218EC04F0CBEC03F0010EA66F95
:1011480054EC00F00C0EA66F54EC00F0010E916FF9
:10115800040E926F3A0E936F000E946F25EC04F014
:10116800020E916F040E926F440E936F000E946FEF
:1011780025EC04F0150E0B6E4B0E0C6EBE0E0D6EAC
:101188000D2EFED70C2EFCD70B2EFAD7000083901D
:101198008392010EA66F54EC00F00C0EA66F54EC6F
:1011A80000F0010E916F010E926F510E936F000EB9
:1011B800946F25EC04F0020E916F010E926F150EDC
:1011C800936F000E946F25EC04F08C6B6CEC04F0BC
:1011D80000C07DF00052FAE07D510F0A01E123D0F2
:1011E8007D510D0A01E1D5D77D51030804E2080EAF
:1011F8007D5DD8A07D077D51080805E20C0E7D5D58
:1012080002E2020E7D5F7D510E0AD8B47D6B300E6E
:101218007D259F6FB7EC01F00A0E8C03F3CF8CF09D
:101228007D518C27D3D7010EA66F54EC00F0010E28
:10123800916F010E926F1F0E936F000E946F25EC45
:1012480004F08CC091F0000E926F7E0E936F000E2A
:10125800946FB0DE7E0E916F000E926F73DE00C049
:1012680091F0000E926F45DF020E916F010E926FA2
:10127800290E936F000E946F25EC04F07D6B7D5161
:101288000F0A0BE06CEC04F000C07DF000500D0A72
:1012980001E17FD77D53F6E0F2D7010EA66F54EC3B
:1012A80000F0010E916F010E926F600E936F000EA9
:1012B800946F25EC04F0010E916F0F0E926FDF0E04
:1012C800936FE6DE010E916F100E926F430E936FCF
:1012D800DFDE916BFCDD35EC05F0000E046E400E90
:1012E800056E1C0E066E8B0E076E9FEC00F0000E4E
:1012F800046E000E056E000E066E890E076E78EC01
:1013080004F0000E046E000E056E200E066E820EAE
:10131800076E78EC04F000C08DF001C08EF002C0BA
:101328008FF003C090F08CC091F0000E0001926F16
:101338007E0E936F000E946F3DDE7E0E916F000E51
:10134800926F00DE010E916F0B0E926F00C093F04A
:10135800000E946F25EC04F0020E916F010E926F4F
:10136800700E936F000E946F25EC04F08DC091F011
:101378008EC092F08FC093F090C094F07E0E956F5F
:10138800000E966F58EC05F0836B020E916F070EF6
:10139800926F7E0E936F000E946F25EC04F0020E90
:1013A800916F0C0E926FDF0E936F72DE020E916FCB
:1013B8000D0E926F430E936F6BDE8CC000F04AECFB
:1013C80005F08DC004F08EC005F08FC006F090C007
:1013D80007F0C4EC01F0010ED8B0000E006E005208
:1013E80003E08390838221D08CC000F04AEC05F0A2
:1013F80000C004F001C005F002C006F003C007F009
:101408008DC000F08EC001F08FC002F090C003F0D4
:10141800C4EC01F0010ED8B0000E006E005203E0DB
:101428008380839202D0839083926CEC04F000C096
:0E1438007DF000500D0A01E1ACD64BD7FFD776
:1014AE0010EE15F0670E006E010E016E460EF66E12
:0E14BE00140EF76E000EF86E64EC04F01200CF
:0A1446005265662054656D703A008F
:0A1450005265662054656D703A0085
:10145A005072657373202320746F20636F6E742E2D
:01146A000081
:0A146B004175746F6D6174696300D0
:0D14750054656D7020436F6E74726F6C00D3
:0F148200456E746572205265662054656D70006A
:0A1491005265662054656D703A0044
:02149B0030001F
:04149D00494E46006E
:0714A10054656D703D200051
:0114A8000F34
:0414A9004E614E0042
:020000040030CA
:0D000100331F3CFFBF81FF0FC00FE00F4019
:00000001FF
