:1000000071EF00F00000000000EF00F000000000C1
:0A0010000000000000000000F3D71C
:0E001C00ACB202D00000FCD77FC0ADFF1200D6
:0A002A00000E9EBA010E006E1200D7
:10003400AECF01F0ABA202D0AB98AB8801C000F008
:020044001200A8
:1000460000017E6B7BC0E9FF7CC0EAFFEECF7DF04E
:100056007D51000A0EE07DC07FF0DDDF00017E2BC2
:100066007E517B25E96E000E7C21EA6EEECF7DF097
:04007600EFD71200AE
:10007A000900F5CFE6FF0006FBE10106F9E11200EF
:10008A001C0E0001736F000E746F7F0E756F000EE9
:10009A00766F340E776F000E786F000E796F000E50
:1000AA007A6F2A0E6B6F000E6C6F000E6D6F000E6A
:1000BA006E6FFF0E6F6FFF0E706F000E716F000E86
:1000CA00726FAC8A900EAB6E948E949C9EAA03D0EB
:0800DA00AECF00F0FBD71200CD
:1000E2000EEC01F0936A0F01396B3A6B660ED36E18
:1000F200B886B06ACF0EAF6EAC84C6DF020E0B6E4E
:10010200040E0C6EBA0E0D6E0D2EFED70C2EFCD701
:100112000B2EFAD70000260E7B6F000E7C6F92DF4B
:10012200060E0B6E130E0C6EAD0E0D6E0D2EFED75F
:100132000C2EFCD70B2EFAD7000000002D0E7B6F81
:10014200000E7C6F7FDF8A808A828A84060E0B6EA5
:10015200130E0C6EAD0E0D6E0D2EFED70C2EFCD7AF
:100162000B2EFAD7000000008A908A928A945CDFF4
:100172000050010A25E10001150E7B6F000E7C6F15
:1001820061DF57DF00C06AF010D08A808A928A94B9
:1001920017D08A908A828A9413D08A908A928A840B
:1001A2000FD08A908A928A940BD000016A51310A48
:1001B200ECE06A51320AEDE06A51330AEEE0F1D71F
:0401C200D6D7FFD7B6
:10021C0010EE15F0550E006E010E016EC60EF66E48
:0E022C00010EF76E000EF86E3DEC00F01200B1
:1001C6000D0A2064617461207265616479200D0AEC
:0101D6000028
:0701D700324D4A200D0A0021
:1001DE00205072657373203120666F7220526564F1
:1001EE00200D0A205072657373203220666F7220C4
:1001FE00477265656E200D0A205072657373203349
:0D020E0020666F7220426C7565200D0A009D
:020000040030CA
:0D000100281F3CFFBF81FF0FC00FE00F4024
:00000001FF
