:1000000009EF06F00000000000EF00F00000000023
:0A0010000000000000000000F3D71C
:06001C00000000001200CC
:100022000F0E0C6E470E0D6E0D2EFED70C2EFCD74A
:06003200000000001200B6
:0A003800210E0D6E0D2EFED71200F2
:100042000B840BAE2CEF00F0010E036E026A016A04
:0A005200006A0A360232FF0E1200A7
:08005C000AAE029E000E120024
:0E006400026A016A006A086A036A000E12004E
:1000720000016DBF02D0819601D081866DBD02D094
:10008200819401D081846DBB02D0819201D08182A2
:100092006DB902D0819001D0818056B002D08188A2
:1000A20001D08198818AB9DF819A6DB702D0819699
:1000B20001D081866DB502D0819401D081846DB367
:1000C20002D0819201D081826DB102D0819001D0A3
:1000D200818056B002D0818801D08198818A9DDFCB
:0E00E200819A56A002D09CDF01D0A5DF12004B
:1000F0000B820BAE82EF00F00368026801680068B3
:080100000A360232FF0E120064
:10010800086A096A000E0762036409EF01F00250E9
:1001180006180A6E075003267E0ED8A09AEF00F044
:10012800035ED8B00DEF01F09EEF00F0035ED8A09B
:1001380011EF01F0028E068E02C00EF001C00BF026
:1001480000C00DF000500402F4CF0CF0015005027D
:10015800F4CF00F0F3CF08F00402F3500C26F4506B
:100168000822000E00220D500502F3500C26F45010
:100178000822000E002202500402F3500826F45010
:10018800002202500502016A000E0122F3500026E7
:10019800F45001220D500602F3500826F4500022B4
:1001A800026A000E012202220B500602F3500026BA
:1001B800F4500122000E02220E500602F3500126CE
:1001C800F450022202BEF1EF00F008360036013684
:1001D80002360306D8B411EF01F004EF01F0D8801D
:1001E800800E08640030000E002201220222D8A0EE
:1001F80004EF01F0023201320032034A0DEF01F040
:100208000AAE029E000E13EF01F0010E27DF13EF76
:1002180001F0020E69DF13EF01F0040E0EDF120089
:0C0228000E0E0D6E0D2EFED70000120011
:080234000B6A0B86FF0E12009D
:10023C000D6A086A0050D8B4000C04180A6E0ABE85
:10024C000D1E0B6A04AE02D0041E042A00AE02D0AE
:10025C00001E002A005004100A6E0ABE1FD0045063
:10026C00085E003600340836045008260036060EA8
:10027C000C6E00340836045000B0085E00A008264E
:10028C0000360C2EF6D700A008260BB015D00DAEFC
:10029C00000C001E002A081E082A000C04AE09D00F
:1002AC0000BE04D00050086E006AF1D7006A002A24
:1002BC00000C001E0B2AD3D7082A0450085CD8A4C3
:0E02CC00E6D7086A002A00AEE2D7FF0C120047
:1002DA0069C004F06AC005F004C002F005C003F06A
:1002EA00044A052A6BC000F06CC001F000016B4B98
:1002FA006C2B00C0E9FF01C0EAFF02C0E1FF03C0A6
:10030A00E2FFEECFE6FF02C0E9FF03C0EAFFEE52CA
:0E031A0001E0E2D769C000F06AC001F01200F5
:100328000C6A0E6A0250D8A4ADEF01F001C002F0C9
:1003380000C001F0006A0E860250D8A4ADEF01F0AB
:1003480001C002F0016A0E960E880250D8B4BFEFC1
:1003580001F00E50035ED8A4D8A0C4EF01F0D890E5
:1003680002BEC9EF01F0003601360236032EB4EFA3
:1003780001F0C4EF01F0010E0C6E70DECCEF01F05D
:10038800020E0C6E5ADECCEF01F0040E0C6E62DE2B
:02039800120051
:10039A000A6A0350D8A40A800750D8A40A820A50CD
:1003AA00D8B430EF02F0030AD8B4E9EF01F00AB08A
:1003BA00E4EF01F006AE2EEF02F02CEF02F002AEEF
:1003CA002CEF02F02EEF02F00250800B0A6E029E12
:1003DA000650800B069E0A18D8B4FAEF01F00A50AC
:1003EA00D8B42CEF02F02EEF02F00750035CD8B419
:1003FA0004EF02F0D8A020EF02F026EF02F0065038
:10040A00025CD8B40EEF02F0D8A020EF02F026EF7B
:10041A0002F00550015CD8B418EF02F0D8A020EF22
:10042A0002F026EF02F00450005CD8B430EF02F07C
:10043A00D8B026EF02F00A52D8B42EEF02F02CEF11
:10044A0002F00A52D8B42CEF02F02EEF02F0D88054
:0E045A001200D8901200D880D8841200120030
:0C046800569069C06DF001DE5680120055
:100474000FD0800E5B6E19D0C00E5B6E16D0940E3A
:100484005B6E13D0D40E5B6E10D0800E5B6E0DD0FD
:100494005B50010AEEE05B50020AEEE05B50030A97
:1004A400EEE05B50040AEEE0F0D75C04006E5B50B3
:1004B400002600C05BF000C06DF0D9DD56905F6A85
:1004C4005F505D24E96E000E5E20EA6EEE520BE092
:1004D4005F505D24E96E000E5E20EA6EEECF69F097
:0A04E400C1DF5F2AEDD75680120039
:1004EE00939A93989390939293949396819A8198DA
:1004FE0081968194819281908DDD8CDD8BDD818260
:10050E008180818A84DD819A85DD818A80DD819A70
:10051E0081DD818A7CDD819A7DDD8190818A77DD26
:10052E00819A78DD818A73DD819A81928186818AB2
:10053E006EDD819A6FDD81968180818A68DD819A78
:10054E008190818A64DD819A65DD818A60DD819A80
:10055E008180818A5CDD819A5DDD8190818A57DDA3
:10056E00819A8186818481828180818A50DD819AFF
:06057E0051DD5680120061
:100584000900F5CFE6FF0006FBE10106F9E11200E0
:10059400FF0E576EFF0E586EFF0E596EFF0E5A6E09
:1005A400C26A3C1C006E0050C116070EC012C08EF9
:0405B400C2801200EF
:1005B8000450000A12E10550000A0FE10650000A33
:1005C8000CE10750000A09E1FF0E006EFF0E016EF4
:1005D8007F0E026EFF0E036EA4D0086A096A0750E8
:1005E800D8B487EF03F00350D8B48BEF03F0025070
:1005F80006180A6E028E068E0E6A02C008F001C046
:100608000CF000C00DF004500D5E0550D8A0053C5C
:100618000C5E0650D8A0063C085E086A0C6A0D6A93
:10062800D8A01EEF03F0D89002320132003208320F
:10063800010E0E6E0750035ED8A02BEF03F07E0E5E
:100648000E240326D8B08FEF03F031EF03F07E0EAF
:100658000E240326D8A093EF03F0180E0B6E0D3668
:100668000C3608360036013602360E360450005E67
:100678000550D8A0053C015E0650D8A0063C025E95
:1006880006340E120EA04CEF03F00D8057EF03F066
:10069800045000260550D8B0053C01260650D8B0B5
:1006A800062802260D900B2E33EF03F07DEF03F0A2
:1006B800D8900036013602360E360450005E0550DA
:1006C800D8A0053C015E0650D8A0063C025E063460
:1006D8000E10010B0D26D8B00C2AD8B4082AD8A4BD
:1006E8007DEF03F008320C320D32032AD8B48FEFB5
:1006F80003F00AAE089E0850026E0C50016E0D50B1
:10070800006E95EF03F0010E91DD95EF03F0020EF8
:10071800A5DC95EF03F0040EE7DC95EF03F0080E77
:040728008CDC120053
:10072C000001676B686B61C05DF062C05EF063C016
:10073C005FF064C060F06051FF0A08E15F50FF0A8F
:10074C0005E15E50FF0A02E15D50FF0A0CE165C055
:10075C0069F066C06AF03D0E6B6F000E6C6FB7DD12
:10076C00030E006EEBD1010E5B6E5FAE0ED0800EF1
:10077C005F18006E00C05FF05B2A65C0E1FF66C0C9
:10078C00E2FF2D0EE66E654B662B000E006E6019B7
:10079C0008E100505F1805E100505E1802E15D5061
:1007AC00000A0BE165C069F066C06AF0360E6B6F2B
:1007BC00000E6C6F8CDD006AC1D16051FF0A08E13C
:1007CC005F50000A05E15E50000A02E15D50000A2C
:1007DC000CE165C069F066C06AF0380E6B6F000EF4
:1007EC006C6F75DD5BC000F0A9D1000E046E000EBD
:1007FC00056E000E066E7F0E076E5DC000F05EC0CB
:10080C0001F05FC002F060C003F0C1DD010ED8B092
:10081C00000E006E00521BE05DC000F05EC001F0E7
:10082C005FC002F060C003F0000E046E000E056E97
:10083C00200E066E820E076E61DC00C05DF001C0FA
:10084C005EF002C05FF003C060F06807CED7000E08
:10085C00046E000E056E200E066E820E076E5DC0D5
:10086C0000F05EC001F05FC002F060C003F08FDDED
:10087C00000ED8B0010E006E00521BE05DC000F0FF
:10088C005EC001F05FC002F060C003F0CD0E046EDC
:10089C00CC0E056E4C0E066E7B0E076E2FDC00C068
:1008AC005DF001C05EF002C05FF003C060F0682B29
:1008BC00CED7FF0E5D14086EFF0E5E14096E7F0E10
:1008CC005F140A6E000E60150B6E08C004F009C0B0
:1008DC0005F00AC006F00BC007F00436049005368C
:1008EC0006360736000E5D14006E000E5E14016EA7
:1008FC00000E5F14026EFF0E6015036E00C05DF0FB
:10090C0001C05EF002C05FF003C060F004505D10E7
:10091C00006E05505E10016E06505F10026E07509F
:10092C006011036E00C05DF001C05EF002C05FF0AC
:10093C0003C060F07F0E605D006E00C05CF0010EC5
:10094C00606F00C004F05DC000F05EC001F05FC0DD
:10095C0002F060C003F0045007E00036009001364E
:10096C0002360336FF0FF8D700C05DF001C05EF011
:10097C0002C05FF003C060F065C0E1FF66C0E2FF3B
:10098C006051300FE66E654B662B800E6819006E59
:10099C00800E010A005C08E3800E060A006E800ED1
:1009AC006819005C01E30AD065C0E1FF66C0E2FF94
:1009BC002E0EE66E654B662B010E676F060E5C6E97
:1009CC005C50000A54E0606B5DC000F05EC001F04A
:1009DC005FC002F060C003F00036009001360236B2
:1009EC000336003600900136023603365D50002681
:1009FC005E5001225F5002226051032200C05DF064
:100A0C0001C05EF002C05FF003C060F05DC000F09A
:100A1C005EC001F05FC002F060C003F000360090D1
:100A2C0001360236033600C05DF001C05EF002C034
:100A3C005FF003C060F065C0E1FF66C0E2FF60518B
:100A4C00300FE66E654B662B6751000A0EE16807A6
:100A5C006851000A0AE165C0E1FF66C0E2FF2E0E94
:100A6C00E66E654B662B010E676F5C06A9D7FF0E11
:100A7C006525E96EFF0E6621EA6EEE50300A05E13F
:100A8C00010E655F000E665BF2D7FF0E6525E96E01
:100A9C00FF0E6621EA6EEE502E0A04E1010E655F30
:100AAC00000E665B6851000A43E065C0E1FF66C05A
:100ABC00E2FF650EE66E654B662B800E6819006EC4
:100ACC00800E000A005C0BE265C0E1FF66C0E2FF2D
:100ADC002D0EE66E654B662B68510008686F68C07A
:100AEC005CF0800E090A006E800E6819005C0FE243
:100AFC000A0E046E5CC000F01EEC01F065C0E1FF54
:100B0C0066C0E2FF0050300FE66E654B662B0A0E96
:100B1C00046E5CC000F01EEC01F008C000F065C073
:100B2C00E1FF66C0E2FF0050300FE66E654B662BAE
:0E0B3C0065C0E1FF66C0E2FFE66A006A1200D3
:100B4A000FD0800E5B6E19D0C00E5B6E16D0940E5D
:100B5A005B6E13D0D40E5B6E10D0800E5B6E0DD020
:100B6A005B50010AEEE05B50020AEEE05B50030ABA
:100B7A00EEE05B50040AEEE0F0D75C04006E5B50D6
:100B8A00002600C05BF0568000C06DF039EC00F022
:0E0B9A0056905DC06DF039EC00F056801200F0
:100BA8000050086E0150006E016A026A036A0B6AFF
:100BB8000C6A960E036E0A6A00C001F008C000F0C5
:0A0BC800086A026A94EC01F01200C2
:100BD200C26A3C1C006E0050C116070EC012C08EC5
:100BE2005BC000F000360090003600900050C21248
:100BF200C28014EC01F0C282C2A201D0FDD7C4CFE0
:100C020001F0006AC3500012000E0112C2901200DD
:100C1200C9EC06F00E0EC16E9282760ED36EB9DC6E
:100C220065DC010E00016D6F39EC00F00C0E6D6F8A
:100C320039EC00F0010E5B6E050E5C6E150E5D6EFA
:100C4200000E5E6E16DC020E5B6E040E5C6E1D0EF6
:100C52005D6E000E5E6E0DDC0B0E0B6E260E0C6EC4
:100C62005D0E0D6E0D2EFED70C2EFCD70B2EFAD775
:100C720000000000010E6D6F39EC00F0010E5B6E9A
:100C8200010E5C6E290E5D6E000E5E6E3AEC02F095
:100C9200020E5B6E080E5C6EDF0E5D6E55DF020E9D
:100CA2005B6E090E5C6E430E5D6E4EDF5B6A90DF1B
:100CB20000C041F001C042F076DF000E046E400E2B
:100CC200056E1C0E066E8B0E076E84EC00F0000E95
:100CD200046E000E056E000E066E890E076E6BDC4A
:100CE20000C043F001C044F002C045F003C046F02A
:100CF200000E046E000E056E200E066E820E076E4A
:100D02005ADC00C043F001C044F002C045F003C009
:100D120046F000C061F001C062F002C063F003C09F
:100D220064F0470E0001656F000E666FFEDC4B6AD1
:100D3200020E5B6E030E5C6E470E5D6E000E5E6E03
:100D42003AEC02F0040E0B6E0C0E0C6E330E0D6EAE
:100D52000D2EFED70C2EFCD70B2EFAD7000000006A
:040D6200A5D7FFD73B
:100D920010EE15F02C0E006E010E016E660EF66E50
:0E0DA2000D0EF76E000EF86EC2EC02F012009D
:080D66004469676974616C00C7
:0C0D6E00546865726D6F6D6574657200ED
:0D0D7A0054656D70657261747572653A00A4
:020D870030003A
:040D8900494E460089
:010D8D003035
:040D8E004E614E0064
:020000040030CA
:0D000100081F1EFF0281FF0FC00FE00F401F
:00000001FF
